:060000000A128A1110280B
:10000800FE00030EF4000A08F500831203137F08AC
:10001800F6000A128A15712B0A128A111328831303
:10002800DE30FD000930FE00B730FF00C730840025
:100038000A128A1592210A128A110A128A155E2159
:100048000A128A11FB000A128A155F210A128A1104
:10005800FC000A128A1560210A128A11FD00831613
:100068000313DE01DF01F701F801F901FA01830149
:100078000A128A11282E8312031331088039B60018
:100088003608BB003108B6003607B7003708C1008C
:10009800B01F4F28502851284114410803195528EA
:1000A80056286528410A031D5A285B286328003012
:1000B800B1000030B0000030AF000030AE00B01723
:1000C8006D280030B1000030B0000030AF000030C3
:1000D800AE0035088039B6003608BB063508B600CC
:1000E8003607B7003708C000B41F7B287C287D2856
:1000F800401440080319812882289128400A031DCA
:10010800862887288F280030B5000030B4000030DA
:10011800B3000030B200B41799280030B5000030A1
:10012800B4000030B3000030B200400803199D2825
:100138009E28A3284108031DA228A328AC28003024
:10014800B1000030B0000030AF000030AE009F2B8F
:100158002E08B6003608A00034080A128A15EB21CA
:100168000A128A11831203132108C7002008C60047
:100178004608B600B701B801B9013908BF00380808
:10018800BE003708BD003608BC004708B600B701F6
:10019800B801B9013908C5003808C4003708C300D8
:1001A8003608C2002F08B6003608A00033080A1225
:1001B8008A15EB210A128A11831203132108C7003A
:1001C8002008C6004608B600B701B801B9013608CC
:1001D800BC07370803110318013E0319F428BD07AB
:1001E800380803110318013E0319FB28BE07390814
:1001F80003110318013E03190229BF074708B60077
:10020800B701B801B9013608C20737080311031846
:10021800013E03191029C307380803110318013ECA
:1002280003191729C407390803110318013E0319D4
:100238001E29C5073008B6003608A00032080A1281
:100248008A15EB210A128A11831203132108C700A9
:100258002008C6004608B600B701B801B90136083B
:10026800BC07370803110318013E03193C29BD07D1
:10027800380803110318013E03194329BE0739083A
:1002880003110318013E03194A29BF074708B6009E
:10029800B701B801B9013608C207370803110318B6
:1002A800013E03195829C307380803110318013EF2
:1002B80003195F29C407390803110318013E0319FC
:1002C8006629C5070830B6000310BC0DBD0DBE0D6C
:1002D800BF0DB60B68292F08B6003608A0003208F3
:1002E8000A128A15EB210A128A11831203132108B4
:1002F800C7002008C6004608B6004708B700B8017E
:10030800B9013608BC07370803110318013E031961
:100318008E29BD07380803110318013E03199529D2
:10032800BE07390803110318013E03199C29BF07AA
:100338002E08B6003608A00033080A128A15EB21E9
:100348000A128A11831203132108C7002008C60065
:100358004608B6004708B700B801B9013608BC0717
:10036800370803110318013E0319BB29BD073808D4
:1003780003110318013E0319C229BE0739080311E6
:100388000318013E0319C929BF070830B600031036
:10039800BC0DBD0DBE0DBF0DB60BCB292E08B6008A
:1003A8003608A00032080A128A15EB210A128A11AF
:1003B800831203132108C7002008C6004608B600A8
:1003C8004708B700B801B9013608BC073708031158
:1003D8000318013E0319F129BD0738080311031852
:1003E800013E0319F829BE07390803110318013E15
:1003F8000319FF29BF072F08B6003608A0003408E4
:100408000A128A15EB210A128A1183120313210892
:10041800C7002008C6004608B6004708B700B8015C
:10042800B9013608C207370803110318013E03193A
:100438001E2AC307380803110318013E0319252A89
:10044800C407390803110318013E03192C2AC507EC
:100458003008B6003608A00033080A128A15EB21C6
:100468000A128A11831203132108C7002008C60044
:100478004608B6004708B700B801B9013608C207F0
:10048800370803110318013E03194B2AC30738081C
:1004980003110318013E0319522AC407390803112E
:1004A8000318013E0319592AC5073008B600360853
:1004B800A00034080A128A15EB210A128A11831245
:1004C80003132108C7002008C6004608B6004708DD
:1004D800B700B801B90108300310B60DB70DB80D53
:1004E800B90DFF3E031D702A3608C20737080311ED
:1004F8000318013E0319812AC3073808031103189A
:10050800013E0319882AC407390803110318013E5C
:1005180003198F2AC5073C08B6003D08B7003E08F6
:10052800B8003F08B90018300310B90CB80CB70C64
:10053800B60CFF3E031D982A3608C2073708031178
:100548000318013E0319A92AC30738080311031821
:10055800013E0319B02AC407390803110318013EE4
:100568000319B72AC5070830B6000310BC0DBD0D26
:10057800BE0DBF0DB60BB92A41084007B600B7013A
:10058800B70D3608823EC60037080318013EFF3E05
:10059800C700EB2A0130B6000310C20DC30DC40D0D
:1005A800C50DB60BD02ABF1FDA2ADB2ADC2A421473
:1005B8000130B6000310BC0DBD0DBE0DBF0DB60B4E
:1005C800DE2AFF30C6070318C70AFF30C707C41F53
:1005D800EE2AEF2ACE2AC001BF1FF32AF42A102BD5
:1005E800FF303C05B600FF303D05B700FF303E0543
:1005F800B8007F303F05B90039083804370436049D
:100608000319072B082B0B2BC001C00A102B421C07
:100618000E2B0F2B102B082B40080319142B152B0E
:10062800462B0130C207003003180130C3070030E1
:1006380003180130C407003003180130C507451CF2
:10064800262B272B462B4208B6004308B700440840
:10065800B8004508B9000130BA00390DB90CB80C1A
:10066800B70CB60CBA0B312B3908C5003808C400D2
:100678003708C3003608C2000130C6070318C70A86
:100688000030C7074708803AFF0080307F02031D0B
:100698004F2BFF304602031C522B532B5E2B7F300F
:1006A80083120313C5008030C4000030C30000303B
:1006B800C200932B831203134708803AFF0080304F
:1006C8007F02031D692B0130460203186C2B6D2B2A
:1006D800792B003083120313C5000030C4000030AA
:1006E800C3000030C200BB01932B831203134608DA
:1006F800B6003608C100FF30C205FF30C3057F30A1
:10070800C4050030C505411C8A2B8B2B8C2BC417C4
:100718004108B6000310360CB7003708C5003B087F
:10072800B6003608C5044508B1004408B0004308BF
:10073800AF004208AE000800831203132308803973
:10074800A8002808B0002308A8002807A90029083D
:10075800B200A21FB02BB12BB22B321432080319EE
:10076800B62BB72BC72B320A031DBB2BBC2BC42BB4
:100778000030A3000030A2000030A1000030A0002B
:10078800A217A301CF2B0030A3000030A200003035
:10079800A1000030A00027088039A8002808B1006F
:1007A800310830060319D92BDA2BDB2B3017270831
:1007B800A8002807A9002908B100A61FE42BE52BEB
:1007C800E62B311431080319EA2BEB2BFB2B310AEA
:1007D800031DEF2BF02BF82B0030A7000030A600EC
:1007E8000030A5000030A400A617A701032C003094
:1007F800A7000030A6000030A5000030A400320891
:1008080031020318082C092C4D2C301F0C2C0D2CF0
:10081800112C8030A8002808B0063208A800280843
:10082800B3003108A8002808B2003308A800280837
:10083800B1002008A8002808B3002408A800280848
:10084800A0003308A8002808A4002108A800280848
:10085800B3002508A8002808A1003308A800280824
:10086800A5002208A8002808B3002608A800280820
:10087800A2003308A8002808A6002308A800280812
:10088800B3002708A8002808A3003308A8002808F0
:10089800A700B3013108A800A9012908AB00320854
:1008A8002802AA00031CAB032B08803AFF00803003
:1008B8007F02031D612C1A302A02031C642C652C4C
:1008C800A22C831203132308220421042004031DED
:1008D8006E2C702C0130712C0030A8002808B30051
:1008E8000030A3000030A2000030A1000030A000BA
:1008F8003108A8002808B200AA2C331C842C852CA7
:100908008E2C3308A8000310280C0138A9002908E8
:10091800B300902C0310B30C201C932C942C952C12
:10092800B3170130A800230DA30CA20CA10CA00C36
:10093800A80B972C0130A8002808B20783120313CC
:1009480031083202031CA92CAA2C812C301BAD2C97
:10095800AE2CF92C3208031DB22CB32CBC2C003061
:10096800A3000030A2000030A1000030A000272E14
:100978002408A007250803110318013E0319C52CF4
:10098800A107260803110318013E0319CC2CA2075E
:10099800270803110318013E0319D32CA307231CAE
:1009A800D62CD72CAD2D331CDA2CDB2CE42C3308B9
:1009B800A8000310280C0138A9002908B300E62C68
:1009C8000310B30C201CE92CEA2CEB2CB3170130D4
:1009D800A800230DA30CA20CA10CA00CA80BED2CB5
:1009E8000130A8002808B207AD2D2308803AFF007F
:1009F8002708803A7F02031D0B2D26082202031DBB
:100A08000B2D25082102031D0B2D24082002031895
:100A18000E2D0F2D672DFF30A800FF30A900FF30E5
:100A2800AA00FF30AB002408AC002508AD0026085A
:100A3800AE002708AF002008AC022108031C210FD4
:100A4800262D272DAD022208031C220F2C2D2D2D1B
:100A5800AE022308031C230F322D332DAF022C08BE
:100A6800A8072D0803182D0F3A2D3B2DA9072E088E
:100A780003182E0F402D412DAA072F0803182F0AFF
:100A8800AB072B08A3002A08A2002908A100280800
:100A9800A0008030A8002808B006B309B30A3308BC
:100AA800031D572D582D752D0130A0070030031850
:100AB8000130A107003003180130A20700300318E5
:100AC8000130A307752D2408A0022508031C250F53
:100AD800A1022608031C260FA2022708031C270FC1
:100AE800A3022308220421042004031D7C2D7D2D4C
:100AF800A92D3308031D812D822DA92D0030A300B7
:100B08000030A2000030A1000030A000272E0130E4
:100B1800A8000310A00DA10DA20DA30DA80B8D2DEB
:100B2800B31F972D982D992D2014331C9C2D9D2D86
:100B3800A02D0314B30DA22D0310B30D3208031911
:100B4800A62DA72DA92D0130B202A21FAC2DAD2DC7
:100B58008B2DB101B31FB12DB22DC02D33087F39B4
:100B68000319B72DB82DBB2DB101B10AC02D201C1A
:100B7800BE2DBF2DC02DB82D31080319C42DC52D8C
:100B8800F92D0130A007003003180130A10700300B
:100B980003180130A207003003180130A307231CF3
:100BA800D62DD72DF92D2008A8002108A900220844
:100BB800AA002308AB000130AC002B0DAB0CAA0C2B
:100BC800A90CA80CAC0BE12D2B08A3002A08A20045
:100BD8002908A1002808A000320A0319F42DF52DD0
:100BE800F92D0130A8002808B207320A0319FD2D93
:100BF800FE2D032E3208031D022E032E112E003067
:100C0800A3000030A2000030A1000030A00032088C
:100C1800031D0F2E102E112EB001321C142E152E6E
:100C2800172EA2171B2E7F30A8002808A20532080D
:100C3800A8000310280CA9002908A300B01F252E1E
:100C4800262E272EA31708000A128A15A1210A1298
:100C58008A1183160313061406118312031306114F
:100C68008316031386108312031386100A128A153B
:100C7800CE210A128A110A128A157C210A128A11B7
:100C88000A128A11FB270A128A11831603135E08B7
:100C980083120313A000831603135F088312031340
:100CA800A100A201A30100300A128A11E4260A1247
:100CB8008A11831203132308B5002208B4002108FF
:100CC800B3002008B2004330B1001D30B00014302A
:100CD800AF006130AE000A128A113F200A128A1151
:100CE800831203133108CF003008CE002F08CD003F
:100CF8002E08CC004430CB007F30CA00C030C90079
:100D08000030C8000A128A1523260A128A11831293
:100D180003134B0883160313C200831203134A08F4
:100D280083160313C10083120313490883160313A0
:100D3800C00083120313480883160313BF00420838
:100D4800B5004108B4004008B3003F08B2000A12D9
:100D58008A15E0240A128A11831603133508C6007F
:100D68003408C5003308C4003208C300460883129B
:100D78000313E50083160313450883120313E400E5
:100D880083160313440883120313E3008316031323
:100D9800430883120313E2000A128A15DE230A129B
:100DA8008A11831203136308EF006208EE000A1227
:100DB8008A1573250A128A11492E0A128A111028D7
:100DC80083120313A80028080319EB2EEC2E002F1A
:100DD800A31FEF2EF02E002F2009AA002109AB0037
:100DE8002209AC002309AD00AA0A0319AB0A0319AA
:100DF800AC0A0319AD0A082F2308AD002208AC007D
:100E08002108AB002008AA0023082204210420049A
:100E1800031D0F2F102F192F0030A3000030A20040
:100E28000030A1000030A0009F2F9630A4002408B5
:100E3800A9002B2F0130A4002408A90701300310B2
:100E4800AD0CAC0CAB0CAA0CFF3E031D232FFE30DF
:100E58002D05031D302F312F1E2F4D2F0130A400DB
:100E68002408A9070130AA07003003180130AB078E
:100E7800003003180130AC07003003180130AD070B
:100E880001300310AD0CAC0CAB0CAA0CFF3E031DDB
:100E9800452FFF302D05031D522F532F322F5F2F63
:100EA8000130A9020130A4000310AA0DAB0DAC0D4E
:100EB800AD0DA40B582FAC1B622F632F692F023086
:100EC80029020318682F692F542F29186C2F6D2FAA
:100ED800752FFF30AA05FF30AB057F30AC05FF301A
:100EE800AD050310A90C2908A400A501A601A701B6
:100EF80018300310A40DA50DA60DA70DFF3E031D68
:100F08007D2F2408AA042508AB042608AC0427086A
:100F1800AD0428080319912F922F972FA31F952FFF
:100F2800962F972FAD172D08A3002C08A2002B0889
:100F3800A1002A08A000080083120313AF01AC1F08
:100F4800A62FA72FAE2FAB09AC09AB0A0319AC0A21
:100F5800AF01AF0AAA1FB12FB22FB72FA909AA094B
:100F6800A90A0319AA0A29082A040319BC2FBD2FA4
:100F7800EC2FAE01AE0ACB2F01300310A90DAA0D3C
:100F8800FF3E031DC12F0130AD002D08AE07AA1F7B
:100F9800CE2FCF2FC02F2A082C02031DD52F2908AA
:100FA8002B02031CD82FD92FDF2F2908AB022A08C0
:100FB800031CAC03AC0201300310AA0CA90CFF3EC1
:100FC800031DE02F0130AE02031DEB2FEC2FCF2FB6
:100FD8002F080319F02FF12FF62FAB09AC09AB0A34
:100FE8000319AC0A2C08AA002B08A90008008312D0
:060FF80003131F150800A1
:1012BC00013402340434831203131F15080071081F
:1012CC00831203138F0070088E000800831203131F
:1012DC00A10088012008D13E8400831300088700F8
:1012EC0021087B3E84000008880008008B170B1730
:1012FC00831603130C14831203130C10901030304C
:10130C00900410151014FD308F008F308E000800E3
:10131C007E088A007F0882000A128A158E210A1222
:10132C008A158000840A04087D0603190034FF0A1C
:10133C000319FE0A9229831603138701871383125C
:10134C000313871783160313880183120313880171
:10135C000030EE00EF000A128A1573250A128A1566
:10136C000800C034F934A434B03499349234823443
:10137C00F83480349034C034F934A434B034993413
:10138C0092348234F834803490340134023404348E
:10139C008316031305148B170B170C1783120313E7
:1013AC000C131F139F13831603131F13C7308312C1
:1013BC0003139F05831603139F171F08F039013879
:1013CC009F00831203131F14080083120313A80039
:1013DC00A401A5012008A200A3012208A60023084D
:1013EC00A700281CFA29FB29012A2608A4070318A0
:1013FC00A50A2708A50701300310A60DA70DFF3E6F
:10140C00031D022A0310A80C2808031D0E2A0F2AFC
:10141C00F7292508A1002408A000080080308316B5
:10142C000313AD06310883120313A30083160313B1
:10143C00300883120313A200831603132F088312A0
:10144C000313A100831603132E0883120313A000A9
:10145C00831603132D0883120313A700831603139B
:10146C002C0883120313A600831603132B08831274
:10147C000313A500831603132A0883120313A40075
:10148C000A128A11A0230A128A1583120313230845
:10149C0083160313AD008312031322088316031360
:1014AC00AC0083120313210883160313AB008312C1
:1014BC000313200883160313AA00080000308312BC
:1014CC0003132005A80000302105A9008030220557
:1014DC00AA007F302305AB002B082A04290428041A
:1014EC00031D792A7A2A822A0030A3000030A20038
:1014FC000030A1000030A00000302405A80000300E
:10150C002505A90080302605AA007F302705AB00F1
:10151C002B082A0429042804031D952A962A9E2A9E
:10152C000030A7000030A6000030A5000030A40059
:10153C0027082306031DAC2A26082206031DAC2A05
:10154C0025082106031DAC2A240820060319AF2AFE
:10155C00B02AB22A0310B32A03140800831203130F
:10156C002F08A3002E08A2002D08A1002C08A00013
:10157C000030A7000030A6000030A5000030A40009
:10158C000A128A1564220A128A15031CCE2ACF2A43
:10159C00D82A831203133008840083138001840A31
:1015AC008001072B831203132F087F39B100B2017E
:1015BC000310B10DB20D3008840031088313800084
:1015CC00840A320880002E0D2E0D0139B100B201B3
:1015DC003008840031088004840A32088004300802
:1015EC00840082308007840F00080318000AFF0073
:1015FC00FF307F07800084032F0880393F38AF000D
:10160C00AE13080083120313A601A11F0E2B0F2B80
:10161C00162BA009A109A00A0319A10AA601A60A62
:10162C00A31F192B1A2B232BA209A309A20A0319F6
:10163C00A30A0130A4002408A606A701A8012008CB
:10164C00210403192A2B2B2B622BA501A50A392B5C
:10165C0001300310A00DA10DFF3E031D2F2B0130F7
:10166C00A4002408A507A11F3C2B3D2B2E2B0130D9
:10167C000310A70DA80DFF3E031D3E2B21082302CE
:10168C00031D4A2B20082202031C4D2B4E2B552BDD
:10169C002008A2022108031CA303A3022714013073
:1016AC000310A10CA00CFF3E031D562B0130A5020C
:1016BC00031D612B622B3D2B26080319662B672B10
:1016CC006C2BA709A809A70A0319A80A2808A100C6
:1016DC002708A00008000C1F742B752B912B0C13E2
:1016EC001E08F200F301720883160313DE00730860
:1016FC00DF005E08F300F2017208DE007308DF0001
:10170C001E085E07F2005F0803185F0AF3007208F8
:10171C00DE007308DF0083120C1C952B962BD32B49
:10172C000C108F30F000FD30F1000A128A15652183
:10173C000A128A150130F9070318FA0A0030FA0761
:10174C007A08803AFF0080307F02031DAF2BC8302F
:10175C007902031CB22BB32BD32BF901FA010A1219
:10176C008A1561210A128A15831203130618BF2BDE
:10177C00C32B831203138614C62B831203138610F8
:10178C000310061C03140318CC2BD02B8312031349
:10179C000615D32B83120313061176088312031339
:1017AC00FF0075088A00740E8300FE0E7E0E090081
:1017BC00031083120313640D650DE6006608EC003C
:1017CC006C08031DEA2BEB2BF42B0030E5000030EA
:1017DC00E4000030E3000030E200592C6208E6001F
:1017EC006308E7006408E8006508E9001F3003108F
:1017FC00E90CE80CE70CE60CFF3E031DFD2B66081C
:10180C00EA006A08EB00E417FF30E205FF30E3055D
:10181C00FF30E4050030E5059630EC02EC1F172C88
:10182C00182C322C6C08803A973E03181E2C1F2C57
:10183C00202CEB2B01300310E50CE40CE30CE20C38
:10184C00FF3E031D212C0130E6006608EC07031D4A
:10185C00302C312C202C492C20306C02031C372CC2
:10186C00382C442CEB2B0130E6000310E20DE30D79
:10187C00E40DE50DE60B3B2C0130EC026C08031D6E
:10188C00482C492C392C6B0803194D2C4E2C592CF7
:10189C00E209E309E409E509E20A0319E30A031979
:1018AC00E40A0319E50A08008316031323088312BC
:1018BC000313AF0083160313220883120313AE0025
:1018CC0083160313210883120313AD00831603132D
:1018DC00200883120313AC00A830ED006D08B00093
:1018EC000A128A15B4220A128A1583160313A91F29
:1018FC00802C812C8A2C0030A3000030A2000030F8
:10190C00A1000030A000DF2C003029021D3003198B
:10191C002802031C922C932C942CDF2C230883126A
:10192C000313E50083160313220883120313E40048
:10193C0083160313210883120313E3008316031386
:10194C00200883120313E2000A128A15DE230A12FE
:10195C008A15831203136508A3006408A2006308A8
:10196C00A1006208A00001300A128A11E4260A12B2
:10197C008A1583120313230883160313A7008312FB
:10198C000313220883160313A600831203132108E2
:10199C0083160313A5008312031320088316031365
:1019AC00A4002708A3002608A2002508A1002408EB
:1019BC00A0000800831603133508A3003408A20006
:1019CC003308A1003208A0000A128A155A240A1200
:1019DC008A15831603132308AD002208AC002108D6
:1019EC00AB002008AA003508B1003408B000330859
:1019FC00AF003208AE000A128A1514220A128A1598
:101A0C00831603132D08B9002C08B8002B08B70057
:101A1C002A08B600390883120313A3008316031394
:101A2C00380883120313A20083160313370883129A
:101A3C000313A10083160313360883120313A000AB
:101A4C0083160313350883120313A700831603139D
:101A5C00340883120313A60083160313330883126E
:101A6C000313A50083160313320883120313A40077
:101A7C000A128A11A0230A128A158312031323084F
:101A8C0083160313B5008312031322088316031362
:101A9C00B40083120313210883160313B3008312BB
:101AAC000313200883160313B2003508A30034086F
:101ABC00A2003308A1003208A0000A128A155A2489
:101ACC000A128A15831603132308B5002208B400E2
:101ADC002108B3002008B20008000A308312031357
:101AEC00A9000030AA006430A0000030A1006F08EB
:101AFC00A3006E08A2000A128A1508230A128A157E
:101B0C00831203132108AC002008AB000A128A11BF
:101B1C00A0270A128A1583120313290883160313AC
:101B2C00BA003A08BC000A3083120313A900003033
:101B3C00AA000A30A0000030A1006F08A3006E08B4
:101B4C00A2000A128A1508230A128A15831203139B
:101B5C002108AC002008AB000A128A11A0270A1237
:101B6C008A1583120313290883160313BA003A0843
:101B7C00BD000A3083120313A9000030AA006F08BD
:101B8C00AC006E08AB000A128A11A0270A128A1543
:101B9C0083120313290883160313BA003A08BE00F4
:101BAC003C08BA003A0883120313A00000300A1252
:101BBC008A156C210A128A158312031387130730B6
:101BCC0083160313BB007C30BA00BA0BEB2DBB0B96
:101BDC00EB2D0000831603133D08BA003A0883125C
:101BEC000313A00001300A128A156C210A128A15FF
:101BFC00073083160313BB007C30BA00BA0B042EDB
:101C0C00BB0B042E0000831603133E08BA003A08DF
:101C1C0083120313A00002300A128A156C210A12D7
:101C2C008A15073083160313BB007C30BA00BA0B3D
:101C3C001D2EBB0B1D2E00000800831203134F0832
:101C4C008039D0005008D9004F08D0005007D1007F
:101C5C005108E000CE1F332E342E352E6014600850
:101C6C000319392E3A2E4A2E600A031D3E2E3F2EA2
:101C7C00472E0030CF000030CE000030CD000030B9
:101C8C00CC00CE17CF01522E0030CF000030CE004A
:101C9C000030CD000030CC004B088039D00050080B
:101CAC00D9064B08D0005007D1005108E100CA1FDB
:101CBC00602E612E622E611461080319662E672E48
:101CCC00772E610A031D6B2E6C2E742E0030CB0008
:101CDC000030CA000030C9000030C800CA17CB0160
:101CEC007F2E0030CB000030CA000030C90000301D
:101CFC00C8004B084A0449044804031D862E872E4D
:101D0C00A02E0030CF000030CE000030CD000030CF
:101D1C00CC008030CE047F30CF045908D00050085E
:101D2C00CF044F08CB004E08CA004D08C9004C0820
:101D3C00C800FF2F6008031DA42EA52EAE2E003068
:101D4C00CB000030CA000030C9000030C800FF2FA3
:101D5C006008D000D1015108D30061085002D200B4
:101D6C00031CD30352087F3EDA0053080318013ECC
:101D7C00003EDB004F08D8004E08D7004D08D600B7
:101D8C004C08D5000030CF000030CE000030CD0024
:101D9C000030CC000030DF000030DE000030DD0011
:101DAC000030DC00E101242F61080319DE2EDF2E48
:101DBC00FF2E0130D0000310D50DD60DD70DD80D48
:101DCC00D00BE12E0130D0000310CC0DCD0DCE0D7B
:101DDC00CF0DD00BEA2EDF1FF42EF52EF62E4C1461
:101DEC000130D0000310DC0DDD0DDE0DDF0DD00B4E
:101DFC00F82E4B085802031D0D2F4A085702031DDD
:101E0C000D2F49085602031D0D2F48085502031CBF
:101E1C00102F112F202F5F174808D5024908031CDB
:101E2C00490FD6024A08031C4A0FD7024B08031C61
:101E3C004B0FD8020130D0005008E1071A30610274
:101E4C00031C292F2A2FDA2E580857045604550440
:101E5C000319312F322F512F5C14512F0130D00028
:101E6C000310CC0DCD0DCE0DCF0DD00B362FDF1FAB
:101E7C00402F412F422F4C140130D0000310DC0DA9
:101E8C00DD0DDE0DDF0DD00B442FFF30DA0703180C
:101E9C00DB0AFF30DB07CE1F542F552F342FE10107
:101EAC00DF1F592F5A2F762FFF305C05D000FF30E3
:101EBC005D05D100FF305E05D2007F305F05D30099
:101ECC00530852045104500403196D2F6E2F712FB7
:101EDC00E101E10A762F4C1C742F752F762F6E2F93
:101EEC00610803197A2F7B2FAC2F0130CC070030FF
:101EFC0003180130CD07003003180130CE07003035
:101F0C0003180130CF074F1C8C2F8D2FAC2F4C0892
:101F1C00D0004D08D1004E08D2004F08D30001303C
:101F2C00D400530DD30CD20CD10CD00CD40B972F56
:101F3C005308CF005208CE005108CD005008CC00F9
:101F4C000130DA070318DB0A0030DB075B08803A44
:101F5C00FF0080307F02031DB52FFF305A02031C97
:101F6C00B82FB92FC72FFF3083120313DA000030BC
:101F7C00DB000030CF000030CE000030CD00003050
:101F8C00CC00831203135B08803AFF0080307F0281
:101F9C00031DD22F01305A020318D52FD62FE32F51
:101FAC0083120313DA01DB010030CF000030CE00C6
:101FBC000030CD000030CC00D901831203135A0835
:101FCC00D0005008E000601CEC2FED2FEF2FCE1747
:101FDC00F32F7F30D0005008CE056008D0000310DE
:101FEC00500CD1005108CF005908D0005008CF0434
:041FFC00972E080014
:02400E00323F3F
:00000001FF
